{
  "address": "0xe7f1725E7734CE288F8367e1Bb143E90bb3F0512",
  "abi": [
    {
      "inputs": [],
      "stateMutability": "nonpayable",
      "type": "constructor"
    },
    {
      "anonymous": false,
      "inputs": [
        {
          "indexed": true,
          "internalType": "address",
          "name": "account",
          "type": "address"
        },
        {
          "indexed": true,
          "internalType": "address",
          "name": "operator",
          "type": "address"
        },
        {
          "indexed": false,
          "internalType": "bool",
          "name": "approved",
          "type": "bool"
        }
      ],
      "name": "ApprovalForAll",
      "type": "event"
    },
    {
      "anonymous": false,
      "inputs": [
        {
          "indexed": true,
          "internalType": "address",
          "name": "previousOwner",
          "type": "address"
        },
        {
          "indexed": true,
          "internalType": "address",
          "name": "newOwner",
          "type": "address"
        }
      ],
      "name": "OwnershipTransferred",
      "type": "event"
    },
    {
      "anonymous": false,
      "inputs": [
        {
          "indexed": true,
          "internalType": "address",
          "name": "operator",
          "type": "address"
        },
        {
          "indexed": true,
          "internalType": "address",
          "name": "from",
          "type": "address"
        },
        {
          "indexed": true,
          "internalType": "address",
          "name": "to",
          "type": "address"
        },
        {
          "indexed": false,
          "internalType": "uint256[]",
          "name": "ids",
          "type": "uint256[]"
        },
        {
          "indexed": false,
          "internalType": "uint256[]",
          "name": "values",
          "type": "uint256[]"
        }
      ],
      "name": "TransferBatch",
      "type": "event"
    },
    {
      "anonymous": false,
      "inputs": [
        {
          "indexed": true,
          "internalType": "address",
          "name": "operator",
          "type": "address"
        },
        {
          "indexed": true,
          "internalType": "address",
          "name": "from",
          "type": "address"
        },
        {
          "indexed": true,
          "internalType": "address",
          "name": "to",
          "type": "address"
        },
        {
          "indexed": false,
          "internalType": "uint256",
          "name": "id",
          "type": "uint256"
        },
        {
          "indexed": false,
          "internalType": "uint256",
          "name": "value",
          "type": "uint256"
        }
      ],
      "name": "TransferSingle",
      "type": "event"
    },
    {
      "anonymous": false,
      "inputs": [
        {
          "indexed": false,
          "internalType": "string",
          "name": "value",
          "type": "string"
        },
        {
          "indexed": true,
          "internalType": "uint256",
          "name": "id",
          "type": "uint256"
        }
      ],
      "name": "URI",
      "type": "event"
    },
    {
      "anonymous": false,
      "inputs": [
        {
          "indexed": false,
          "internalType": "uint256",
          "name": "input",
          "type": "uint256"
        },
        {
          "indexed": false,
          "internalType": "address",
          "name": "caller",
          "type": "address"
        }
      ],
      "name": "testeEvento",
      "type": "event"
    },
    {
      "inputs": [
        {
          "internalType": "uint256",
          "name": "",
          "type": "uint256"
        }
      ],
      "name": "AREAS",
      "outputs": [
        {
          "internalType": "uint256",
          "name": "",
          "type": "uint256"
        }
      ],
      "stateMutability": "view",
      "type": "function"
    },
    {
      "inputs": [],
      "name": "EDUCACAO",
      "outputs": [
        {
          "internalType": "uint256",
          "name": "",
          "type": "uint256"
        }
      ],
      "stateMutability": "view",
      "type": "function"
    },
    {
      "inputs": [],
      "name": "INFRA",
      "outputs": [
        {
          "internalType": "uint256",
          "name": "",
          "type": "uint256"
        }
      ],
      "stateMutability": "view",
      "type": "function"
    },
    {
      "inputs": [],
      "name": "OUTROS",
      "outputs": [
        {
          "internalType": "uint256",
          "name": "",
          "type": "uint256"
        }
      ],
      "stateMutability": "view",
      "type": "function"
    },
    {
      "inputs": [],
      "name": "SAUDE",
      "outputs": [
        {
          "internalType": "uint256",
          "name": "",
          "type": "uint256"
        }
      ],
      "stateMutability": "view",
      "type": "function"
    },
    {
      "inputs": [
        {
          "internalType": "address",
          "name": "org",
          "type": "address"
        },
        {
          "internalType": "uint256",
          "name": "area",
          "type": "uint256"
        }
      ],
      "name": "addArea",
      "outputs": [],
      "stateMutability": "nonpayable",
      "type": "function"
    },
    {
      "inputs": [
        {
          "internalType": "address",
          "name": "org",
          "type": "address"
        },
        {
          "internalType": "uint256",
          "name": "area",
          "type": "uint256"
        }
      ],
      "name": "addOrg",
      "outputs": [],
      "stateMutability": "nonpayable",
      "type": "function"
    },
    {
      "inputs": [
        {
          "internalType": "address",
          "name": "account",
          "type": "address"
        },
        {
          "internalType": "uint256",
          "name": "id",
          "type": "uint256"
        }
      ],
      "name": "balanceOf",
      "outputs": [
        {
          "internalType": "uint256",
          "name": "",
          "type": "uint256"
        }
      ],
      "stateMutability": "view",
      "type": "function"
    },
    {
      "inputs": [
        {
          "internalType": "address[]",
          "name": "accounts",
          "type": "address[]"
        },
        {
          "internalType": "uint256[]",
          "name": "ids",
          "type": "uint256[]"
        }
      ],
      "name": "balanceOfBatch",
      "outputs": [
        {
          "internalType": "uint256[]",
          "name": "",
          "type": "uint256[]"
        }
      ],
      "stateMutability": "view",
      "type": "function"
    },
    {
      "inputs": [
        {
          "internalType": "address",
          "name": "org",
          "type": "address"
        }
      ],
      "name": "getAreas",
      "outputs": [
        {
          "internalType": "uint256[]",
          "name": "",
          "type": "uint256[]"
        }
      ],
      "stateMutability": "view",
      "type": "function"
    },
    {
      "inputs": [
        {
          "internalType": "address",
          "name": "account",
          "type": "address"
        },
        {
          "internalType": "address",
          "name": "operator",
          "type": "address"
        }
      ],
      "name": "isApprovedForAll",
      "outputs": [
        {
          "internalType": "bool",
          "name": "",
          "type": "bool"
        }
      ],
      "stateMutability": "view",
      "type": "function"
    },
    {
      "inputs": [],
      "name": "owner",
      "outputs": [
        {
          "internalType": "address",
          "name": "",
          "type": "address"
        }
      ],
      "stateMutability": "view",
      "type": "function"
    },
    {
      "inputs": [],
      "name": "renounceOwnership",
      "outputs": [],
      "stateMutability": "nonpayable",
      "type": "function"
    },
    {
      "inputs": [
        {
          "internalType": "address",
          "name": "from",
          "type": "address"
        },
        {
          "internalType": "address",
          "name": "to",
          "type": "address"
        },
        {
          "internalType": "uint256[]",
          "name": "areas",
          "type": "uint256[]"
        },
        {
          "internalType": "uint256[]",
          "name": "amounts",
          "type": "uint256[]"
        },
        {
          "internalType": "bytes",
          "name": "data",
          "type": "bytes"
        }
      ],
      "name": "safeBatchTransferFrom",
      "outputs": [],
      "stateMutability": "nonpayable",
      "type": "function"
    },
    {
      "inputs": [
        {
          "internalType": "address",
          "name": "from",
          "type": "address"
        },
        {
          "internalType": "address",
          "name": "to",
          "type": "address"
        },
        {
          "internalType": "uint256",
          "name": "area",
          "type": "uint256"
        },
        {
          "internalType": "uint256",
          "name": "amount",
          "type": "uint256"
        },
        {
          "internalType": "bytes",
          "name": "data",
          "type": "bytes"
        }
      ],
      "name": "safeTransferFrom",
      "outputs": [],
      "stateMutability": "nonpayable",
      "type": "function"
    },
    {
      "inputs": [
        {
          "internalType": "address",
          "name": "operator",
          "type": "address"
        },
        {
          "internalType": "bool",
          "name": "approved",
          "type": "bool"
        }
      ],
      "name": "setApprovalForAll",
      "outputs": [],
      "stateMutability": "nonpayable",
      "type": "function"
    },
    {
      "inputs": [
        {
          "internalType": "bytes4",
          "name": "interfaceId",
          "type": "bytes4"
        }
      ],
      "name": "supportsInterface",
      "outputs": [
        {
          "internalType": "bool",
          "name": "",
          "type": "bool"
        }
      ],
      "stateMutability": "view",
      "type": "function"
    },
    {
      "inputs": [
        {
          "internalType": "uint256",
          "name": "trossoqualquer",
          "type": "uint256"
        }
      ],
      "name": "teste",
      "outputs": [],
      "stateMutability": "nonpayable",
      "type": "function"
    },
    {
      "inputs": [
        {
          "internalType": "address",
          "name": "newOwner",
          "type": "address"
        }
      ],
      "name": "transferOwnership",
      "outputs": [],
      "stateMutability": "nonpayable",
      "type": "function"
    },
    {
      "inputs": [
        {
          "internalType": "uint256",
          "name": "",
          "type": "uint256"
        }
      ],
      "name": "uri",
      "outputs": [
        {
          "internalType": "string",
          "name": "",
          "type": "string"
        }
      ],
      "stateMutability": "view",
      "type": "function"
    }
  ],
  "transactionHash": "0xdcbe6a354153e3a8f8d0154d83d20c4859eb1528c9ed283fdd2a38417f460b65",
  "args": [],
  "numDeployments": 2,
  "solcInputHash": "655cf04106eb256e62304af2507dc7d7",
  "bytecode": "0x6080604052600060055560016006556002600755600360085560405180608001604052806005548152602001600654815260200160075481526020016008548152506009906004620000539291906200078e565b5064e8d4a51000600a556005600b55600a600c556005600d553480156200007957600080fd5b506040518060600160405280603e8152602001620044ab603e9139620000a5816200020e60201b60201c565b50620000c6620000ba6200022a60201b60201c565b6200023260201b60201c565b6200010a336008546064600d54600a54620000e29190620008c9565b620000ee919062000959565b60405180602001604052806000815250620002f860201b60201c565b6200014e336006546064600b54600a54620001269190620008c9565b62000132919062000959565b60405180602001604052806000815250620002f860201b60201c565b62000192336007546064600c54600a546200016a9190620008c9565b62000176919062000959565b60405180602001604052806000815250620002f860201b60201c565b6000600c54600b54600d546064620001ab919062000991565b620001b7919062000991565b620001c3919062000991565b90506200020733600554606484600a54620001df9190620008c9565b620001eb919062000959565b60405180602001604052806000815250620002f860201b60201c565b5062001068565b806002908051906020019062000226929190620007e0565b5050565b600033905090565b6000600360009054906101000a900473ffffffffffffffffffffffffffffffffffffffff16905081600360006101000a81548173ffffffffffffffffffffffffffffffffffffffff021916908373ffffffffffffffffffffffffffffffffffffffff1602179055508173ffffffffffffffffffffffffffffffffffffffff168173ffffffffffffffffffffffffffffffffffffffff167f8be0079c531659141344cd1fd0a4f28419497f9722a3daafe3b4186f6b6457e060405160405180910390a35050565b600073ffffffffffffffffffffffffffffffffffffffff168473ffffffffffffffffffffffffffffffffffffffff1614156200036b576040517f08c379a0000000000000000000000000000000000000000000000000000000008152600401620003629062000a53565b60405180910390fd5b60006200037d6200022a60201b60201c565b905060006200039285620004e060201b60201c565b90506000620003a785620004e060201b60201c565b9050620003c0836000898585896200056160201b60201c565b8460008088815260200190815260200160002060008973ffffffffffffffffffffffffffffffffffffffff1673ffffffffffffffffffffffffffffffffffffffff168152602001908152602001600020600082825462000421919062000a75565b925050819055508673ffffffffffffffffffffffffffffffffffffffff16600073ffffffffffffffffffffffffffffffffffffffff168473ffffffffffffffffffffffffffffffffffffffff167fc3d58168c5ae7397731d063d5bbf3d657854427343f4c083240f7aacaa2d0f628989604051620004a192919062000ae3565b60405180910390a4620004c0836000898585896200056960201b60201c565b620004d7836000898989896200057160201b60201c565b50505050505050565b60606000600167ffffffffffffffff81111562000502576200050162000b10565b5b604051908082528060200260200182016040528015620005315781602001602082028036833780820191505090505b50905082816000815181106200054c576200054b62000b3f565b5b60200260200101818152505080915050919050565b505050505050565b505050505050565b6200059d8473ffffffffffffffffffffffffffffffffffffffff166200076b60201b62000e6f1760201c565b1562000763578373ffffffffffffffffffffffffffffffffffffffff1663f23a6e6187878686866040518663ffffffff1660e01b8152600401620005e695949392919062000c57565b6020604051808303816000875af19250505080156200062557506040513d601f19601f8201168201806040525081019062000622919062000d27565b60015b620006d7576200063462000d66565b806308c379a014156200069857506200064c62000dc1565b806200065957506200069a565b806040517f08c379a00000000000000000000000000000000000000000000000000000000081526004016200068f919062000eaf565b60405180910390fd5b505b6040517f08c379a0000000000000000000000000000000000000000000000000000000008152600401620006ce9062000f49565b60405180910390fd5b63f23a6e6160e01b7bffffffffffffffffffffffffffffffffffffffffffffffffffffffff1916817bffffffffffffffffffffffffffffffffffffffffffffffffffffffff19161462000761576040517f08c379a0000000000000000000000000000000000000000000000000000000008152600401620007589062000fe1565b60405180910390fd5b505b505050505050565b6000808273ffffffffffffffffffffffffffffffffffffffff163b119050919050565b828054828255906000526020600020908101928215620007cd579160200282015b82811115620007cc578251825591602001919060010190620007af565b5b509050620007dc919062000871565b5090565b828054620007ee9062001032565b90600052602060002090601f0160209004810192826200081257600085556200085e565b82601f106200082d57805160ff19168380011785556200085e565b828001600101855582156200085e579182015b828111156200085d57825182559160200191906001019062000840565b5b5090506200086d919062000871565b5090565b5b808211156200088c57600081600090555060010162000872565b5090565b6000819050919050565b7f4e487b7100000000000000000000000000000000000000000000000000000000600052601160045260246000fd5b6000620008d68262000890565b9150620008e38362000890565b9250817fffffffffffffffffffffffffffffffffffffffffffffffffffffffffffffffff04831182151516156200091f576200091e6200089a565b5b828202905092915050565b7f4e487b7100000000000000000000000000000000000000000000000000000000600052601260045260246000fd5b6000620009668262000890565b9150620009738362000890565b9250826200098657620009856200092a565b5b828204905092915050565b60006200099e8262000890565b9150620009ab8362000890565b925082821015620009c157620009c06200089a565b5b828203905092915050565b600082825260208201905092915050565b7f455243313135353a206d696e7420746f20746865207a65726f2061646472657360008201527f7300000000000000000000000000000000000000000000000000000000000000602082015250565b600062000a3b602183620009cc565b915062000a4882620009dd565b604082019050919050565b6000602082019050818103600083015262000a6e8162000a2c565b9050919050565b600062000a828262000890565b915062000a8f8362000890565b9250827fffffffffffffffffffffffffffffffffffffffffffffffffffffffffffffffff0382111562000ac75762000ac66200089a565b5b828201905092915050565b62000add8162000890565b82525050565b600060408201905062000afa600083018562000ad2565b62000b09602083018462000ad2565b9392505050565b7f4e487b7100000000000000000000000000000000000000000000000000000000600052604160045260246000fd5b7f4e487b7100000000000000000000000000000000000000000000000000000000600052603260045260246000fd5b600073ffffffffffffffffffffffffffffffffffffffff82169050919050565b600062000b9b8262000b6e565b9050919050565b62000bad8162000b8e565b82525050565b600081519050919050565b600082825260208201905092915050565b60005b8381101562000bef57808201518184015260208101905062000bd2565b8381111562000bff576000848401525b50505050565b6000601f19601f8301169050919050565b600062000c238262000bb3565b62000c2f818562000bbe565b935062000c4181856020860162000bcf565b62000c4c8162000c05565b840191505092915050565b600060a08201905062000c6e600083018862000ba2565b62000c7d602083018762000ba2565b62000c8c604083018662000ad2565b62000c9b606083018562000ad2565b818103608083015262000caf818462000c16565b90509695505050505050565b6000604051905090565b600080fd5b60007fffffffff0000000000000000000000000000000000000000000000000000000082169050919050565b62000d018162000cca565b811462000d0d57600080fd5b50565b60008151905062000d218162000cf6565b92915050565b60006020828403121562000d405762000d3f62000cc5565b5b600062000d508482850162000d10565b91505092915050565b60008160e01c9050919050565b600060033d111562000d885760046000803e62000d8560005162000d59565b90505b90565b62000d968262000c05565b810181811067ffffffffffffffff8211171562000db85762000db762000b10565b5b80604052505050565b600060443d101562000dd35762000e60565b62000ddd62000cbb565b60043d036004823e80513d602482011167ffffffffffffffff8211171562000e0757505062000e60565b808201805167ffffffffffffffff81111562000e27575050505062000e60565b80602083010160043d03850181111562000e4657505050505062000e60565b62000e578260200185018662000d8b565b82955050505050505b90565b600081519050919050565b600062000e7b8262000e63565b62000e878185620009cc565b935062000e9981856020860162000bcf565b62000ea48162000c05565b840191505092915050565b6000602082019050818103600083015262000ecb818462000e6e565b905092915050565b7f455243313135353a207472616e7366657220746f206e6f6e2d4552433131353560008201527f526563656976657220696d706c656d656e746572000000000000000000000000602082015250565b600062000f31603483620009cc565b915062000f3e8262000ed3565b604082019050919050565b6000602082019050818103600083015262000f648162000f22565b9050919050565b7f455243313135353a204552433131353552656365697665722072656a6563746560008201527f6420746f6b656e73000000000000000000000000000000000000000000000000602082015250565b600062000fc9602883620009cc565b915062000fd68262000f6b565b604082019050919050565b6000602082019050818103600083015262000ffc8162000fba565b9050919050565b7f4e487b7100000000000000000000000000000000000000000000000000000000600052602260045260246000fd5b600060028204905060018216806200104b57607f821691505b6020821081141562001062576200106162001003565b5b50919050565b61343380620010786000396000f3fe608060405234801561001057600080fd5b506004361061012b5760003560e01c80637f7063e7116100ad578063db40154111610071578063db40154114610340578063e985e9c51461035e578063f242432a1461038e578063f2fde38b146103aa578063f84f7dd0146103c65761012b565b80637f7063e71461029e5780638da5cb5b146102ce578063a22cb465146102ec578063a87d7dd414610308578063c5cc8524146103245761012b565b806321636aa5116100f457806321636aa5146101fa57806328eece13146102185780632eb2c2d6146102485780634e1273f414610264578063715018a6146102945761012b565b8062fdd58e1461013057806301ffc9a7146101605780630e89341c14610190578063169bc486146101c05780631ef16b43146101dc575b600080fd5b61014a60048036038101906101459190611e04565b6103e4565b6040516101579190611e53565b60405180910390f35b61017a60048036038101906101759190611ec6565b6104ad565b6040516101879190611f0e565b60405180910390f35b6101aa60048036038101906101a59190611f29565b61058f565b6040516101b79190611fef565b60405180910390f35b6101da60048036038101906101d59190611e04565b610623565b005b6101e46106de565b6040516101f19190611e53565b60405180910390f35b6102026106e4565b60405161020f9190611e53565b60405180910390f35b610232600480360381019061022d9190612011565b6106ea565b60405161023f91906120fc565b60405180910390f35b610262600480360381019061025d919061231b565b6108b5565b005b61027e600480360381019061027991906124ad565b6109a7565b60405161028b91906120fc565b60405180910390f35b61029c610ac0565b005b6102b860048036038101906102b39190611f29565b610ad4565b6040516102c59190611e53565b60405180910390f35b6102d6610af8565b6040516102e39190612534565b60405180910390f35b6103066004803603810190610301919061257b565b610b22565b005b610322600480360381019061031d9190611f29565b610b38565b005b61033e60048036038101906103399190611e04565b610bc0565b005b610348610c93565b6040516103559190611e53565b60405180910390f35b610378600480360381019061037391906125bb565b610c99565b6040516103859190611f0e565b60405180910390f35b6103a860048036038101906103a391906125fb565b610d2d565b005b6103c460048036038101906103bf9190612011565b610de5565b005b6103ce610e69565b6040516103db9190611e53565b60405180910390f35b60008073ffffffffffffffffffffffffffffffffffffffff168373ffffffffffffffffffffffffffffffffffffffff161415610455576040517f08c379a000000000000000000000000000000000000000000000000000000000815260040161044c90612704565b60405180910390fd5b60008083815260200190815260200160002060008473ffffffffffffffffffffffffffffffffffffffff1673ffffffffffffffffffffffffffffffffffffffff16815260200190815260200160002054905092915050565b60007fd9b67a26000000000000000000000000000000000000000000000000000000007bffffffffffffffffffffffffffffffffffffffffffffffffffffffff1916827bffffffffffffffffffffffffffffffffffffffffffffffffffffffff1916148061057857507f0e89341c000000000000000000000000000000000000000000000000000000007bffffffffffffffffffffffffffffffffffffffffffffffffffffffff1916827bffffffffffffffffffffffffffffffffffffffffffffffffffffffff1916145b80610588575061058782610e92565b5b9050919050565b60606002805461059e90612753565b80601f01602080910402602001604051908101604052809291908181526020018280546105ca90612753565b80156106175780601f106105ec57610100808354040283529160200191610617565b820191906000526020600020905b8154815290600101906020018083116105fa57829003601f168201915b50505050509050919050565b61062b610efc565b60011515600460008473ffffffffffffffffffffffffffffffffffffffff1673ffffffffffffffffffffffffffffffffffffffff168152602001908152602001600020600083815260200190815260200160002060009054906101000a900460ff16151514156106d0576040517f08c379a00000000000000000000000000000000000000000000000000000000081526004016106c7906127f7565b60405180910390fd5b6106da8282610f7a565b5050565b60075481565b60055481565b606060011515600460008473ffffffffffffffffffffffffffffffffffffffff1673ffffffffffffffffffffffffffffffffffffffff1681526020019081526020016000206000600554815260200190815260200160002060009054906101000a900460ff16151514610792576040517f08c379a000000000000000000000000000000000000000000000000000000000815260040161078990612863565b60405180910390fd5b600060098054905067ffffffffffffffff8111156107b3576107b2612123565b5b6040519080825280602002602001820160405280156107e15781602001602082028036833780820191505090505b5090506000600190506000600190505b6009805490508110156108aa5760011515600460008773ffffffffffffffffffffffffffffffffffffffff1673ffffffffffffffffffffffffffffffffffffffff168152602001908152602001600020600083815260200190815260200160002060009054906101000a900460ff1615151415610897578083838151811061087c5761087b612883565b5b6020026020010181815250508180610893906128e1565b9250505b80806108a2906128e1565b9150506107f1565b508192505050919050565b60005b83518110156109925760011515600460008773ffffffffffffffffffffffffffffffffffffffff1673ffffffffffffffffffffffffffffffffffffffff168152602001908152602001600020600086848151811061091957610918612883565b5b6020026020010151815260200190815260200160002060009054906101000a900460ff1615151461097f576040517f08c379a0000000000000000000000000000000000000000000000000000000008152600401610976906129c2565b60405180910390fd5b808061098a906128e1565b9150506108b8565b506109a08585858585610fe7565b5050505050565b606081518351146109ed576040517f08c379a00000000000000000000000000000000000000000000000000000000081526004016109e490612a54565b60405180910390fd5b6000835167ffffffffffffffff811115610a0a57610a09612123565b5b604051908082528060200260200182016040528015610a385781602001602082028036833780820191505090505b50905060005b8451811015610ab557610a85858281518110610a5d57610a5c612883565b5b6020026020010151858381518110610a7857610a77612883565b5b60200260200101516103e4565b828281518110610a9857610a97612883565b5b60200260200101818152505080610aae906128e1565b9050610a3e565b508091505092915050565b610ac8610efc565b610ad26000611088565b565b60098181548110610ae457600080fd5b906000526020600020016000915090505481565b6000600360009054906101000a900473ffffffffffffffffffffffffffffffffffffffff16905090565b610b34610b2d61114e565b8383611156565b5050565b60008114610b7b576040517f08c379a0000000000000000000000000000000000000000000000000000000008152600401610b7290612ac0565b60405180910390fd5b80600e819055507fdb15800a8d1c02fb522125ebb079a495010c82232e903b9d30a7f05979830d2f600e5433604051610bb5929190612ae0565b60405180910390a150565b610bc8610efc565b60011515600460008473ffffffffffffffffffffffffffffffffffffffff1673ffffffffffffffffffffffffffffffffffffffff1681526020019081526020016000206000600554815260200190815260200160002060009054906101000a900460ff1615151415610c6f576040517f08c379a0000000000000000000000000000000000000000000000000000000008152600401610c6690612b55565b60405180910390fd5b610c7b82600554610f7a565b6005548114610c8f57610c8e8282610f7a565b5b5050565b60065481565b6000600160008473ffffffffffffffffffffffffffffffffffffffff1673ffffffffffffffffffffffffffffffffffffffff16815260200190815260200160002060008373ffffffffffffffffffffffffffffffffffffffff1673ffffffffffffffffffffffffffffffffffffffff16815260200190815260200160002060009054906101000a900460ff16905092915050565b60011515600460008673ffffffffffffffffffffffffffffffffffffffff1673ffffffffffffffffffffffffffffffffffffffff168152602001908152602001600020600085815260200190815260200160002060009054906101000a900460ff16151514610dd1576040517f08c379a0000000000000000000000000000000000000000000000000000000008152600401610dc890612c0d565b60405180910390fd5b610dde85858585856112c3565b5050505050565b610ded610efc565b600073ffffffffffffffffffffffffffffffffffffffff168173ffffffffffffffffffffffffffffffffffffffff161415610e5d576040517f08c379a0000000000000000000000000000000000000000000000000000000008152600401610e5490612c9f565b60405180910390fd5b610e6681611088565b50565b60085481565b6000808273ffffffffffffffffffffffffffffffffffffffff163b119050919050565b60007f01ffc9a7000000000000000000000000000000000000000000000000000000007bffffffffffffffffffffffffffffffffffffffffffffffffffffffff1916827bffffffffffffffffffffffffffffffffffffffffffffffffffffffff1916149050919050565b610f0461114e565b73ffffffffffffffffffffffffffffffffffffffff16610f22610af8565b73ffffffffffffffffffffffffffffffffffffffff1614610f78576040517f08c379a0000000000000000000000000000000000000000000000000000000008152600401610f6f90612d0b565b60405180910390fd5b565b6001600460008473ffffffffffffffffffffffffffffffffffffffff1673ffffffffffffffffffffffffffffffffffffffff168152602001908152602001600020600083815260200190815260200160002060006101000a81548160ff0219169083151502179055505050565b610fef61114e565b73ffffffffffffffffffffffffffffffffffffffff168573ffffffffffffffffffffffffffffffffffffffff16148061103557506110348561102f61114e565b610c99565b5b611074576040517f08c379a000000000000000000000000000000000000000000000000000000000815260040161106b90612d9d565b60405180910390fd5b6110818585858585611364565b5050505050565b6000600360009054906101000a900473ffffffffffffffffffffffffffffffffffffffff16905081600360006101000a81548173ffffffffffffffffffffffffffffffffffffffff021916908373ffffffffffffffffffffffffffffffffffffffff1602179055508173ffffffffffffffffffffffffffffffffffffffff168173ffffffffffffffffffffffffffffffffffffffff167f8be0079c531659141344cd1fd0a4f28419497f9722a3daafe3b4186f6b6457e060405160405180910390a35050565b600033905090565b8173ffffffffffffffffffffffffffffffffffffffff168373ffffffffffffffffffffffffffffffffffffffff1614156111c5576040517f08c379a00000000000000000000000000000000000000000000000000000000081526004016111bc90612e2f565b60405180910390fd5b80600160008573ffffffffffffffffffffffffffffffffffffffff1673ffffffffffffffffffffffffffffffffffffffff16815260200190815260200160002060008473ffffffffffffffffffffffffffffffffffffffff1673ffffffffffffffffffffffffffffffffffffffff16815260200190815260200160002060006101000a81548160ff0219169083151502179055508173ffffffffffffffffffffffffffffffffffffffff168373ffffffffffffffffffffffffffffffffffffffff167f17307eab39ab6107e8899845ad3d59bd9653f200f220920489ca2b5937696c31836040516112b69190611f0e565b60405180910390a3505050565b6112cb61114e565b73ffffffffffffffffffffffffffffffffffffffff168573ffffffffffffffffffffffffffffffffffffffff16148061131157506113108561130b61114e565b610c99565b5b611350576040517f08c379a000000000000000000000000000000000000000000000000000000000815260040161134790612d9d565b60405180910390fd5b61135d8585858585611686565b5050505050565b81518351146113a8576040517f08c379a000000000000000000000000000000000000000000000000000000000815260040161139f90612ec1565b60405180910390fd5b600073ffffffffffffffffffffffffffffffffffffffff168473ffffffffffffffffffffffffffffffffffffffff161415611418576040517f08c379a000000000000000000000000000000000000000000000000000000000815260040161140f90612f53565b60405180910390fd5b600061142261114e565b9050611432818787878787611922565b60005b84518110156115e357600085828151811061145357611452612883565b5b60200260200101519050600085838151811061147257611471612883565b5b60200260200101519050600080600084815260200190815260200160002060008b73ffffffffffffffffffffffffffffffffffffffff1673ffffffffffffffffffffffffffffffffffffffff16815260200190815260200160002054905081811015611513576040517f08c379a000000000000000000000000000000000000000000000000000000000815260040161150a90612fe5565b60405180910390fd5b81810360008085815260200190815260200160002060008c73ffffffffffffffffffffffffffffffffffffffff1673ffffffffffffffffffffffffffffffffffffffff168152602001908152602001600020819055508160008085815260200190815260200160002060008b73ffffffffffffffffffffffffffffffffffffffff1673ffffffffffffffffffffffffffffffffffffffff16815260200190815260200160002060008282546115c89190613005565b92505081905550505050806115dc906128e1565b9050611435565b508473ffffffffffffffffffffffffffffffffffffffff168673ffffffffffffffffffffffffffffffffffffffff168273ffffffffffffffffffffffffffffffffffffffff167f4a39dc06d4c0dbc64b70af90fd698a233a518aa5d07e595d983b8c0526c8f7fb878760405161165a92919061305b565b60405180910390a461167081878787878761192a565b61167e818787878787611932565b505050505050565b600073ffffffffffffffffffffffffffffffffffffffff168473ffffffffffffffffffffffffffffffffffffffff1614156116f6576040517f08c379a00000000000000000000000000000000000000000000000000000000081526004016116ed90612f53565b60405180910390fd5b600061170061114e565b9050600061170d85611b0a565b9050600061171a85611b0a565b905061172a838989858589611922565b600080600088815260200190815260200160002060008a73ffffffffffffffffffffffffffffffffffffffff1673ffffffffffffffffffffffffffffffffffffffff168152602001908152602001600020549050858110156117c1576040517f08c379a00000000000000000000000000000000000000000000000000000000081526004016117b890612fe5565b60405180910390fd5b85810360008089815260200190815260200160002060008b73ffffffffffffffffffffffffffffffffffffffff1673ffffffffffffffffffffffffffffffffffffffff168152602001908152602001600020819055508560008089815260200190815260200160002060008a73ffffffffffffffffffffffffffffffffffffffff1673ffffffffffffffffffffffffffffffffffffffff16815260200190815260200160002060008282546118769190613005565b925050819055508773ffffffffffffffffffffffffffffffffffffffff168973ffffffffffffffffffffffffffffffffffffffff168573ffffffffffffffffffffffffffffffffffffffff167fc3d58168c5ae7397731d063d5bbf3d657854427343f4c083240f7aacaa2d0f628a8a6040516118f3929190613092565b60405180910390a4611909848a8a86868a61192a565b611917848a8a8a8a8a611b84565b505050505050505050565b505050505050565b505050505050565b6119518473ffffffffffffffffffffffffffffffffffffffff16610e6f565b15611b02578373ffffffffffffffffffffffffffffffffffffffff1663bc197c8187878686866040518663ffffffff1660e01b8152600401611997959493929190613110565b6020604051808303816000875af19250505080156119d357506040513d601f19601f820116820180604052508101906119d0919061318d565b60015b611a79576119df6131c7565b806308c379a01415611a3c57506119f46131e9565b806119ff5750611a3e565b806040517f08c379a0000000000000000000000000000000000000000000000000000000008152600401611a339190611fef565b60405180910390fd5b505b6040517f08c379a0000000000000000000000000000000000000000000000000000000008152600401611a70906132f1565b60405180910390fd5b63bc197c8160e01b7bffffffffffffffffffffffffffffffffffffffffffffffffffffffff1916817bffffffffffffffffffffffffffffffffffffffffffffffffffffffff191614611b00576040517f08c379a0000000000000000000000000000000000000000000000000000000008152600401611af790613383565b60405180910390fd5b505b505050505050565b60606000600167ffffffffffffffff811115611b2957611b28612123565b5b604051908082528060200260200182016040528015611b575781602001602082028036833780820191505090505b5090508281600081518110611b6f57611b6e612883565b5b60200260200101818152505080915050919050565b611ba38473ffffffffffffffffffffffffffffffffffffffff16610e6f565b15611d54578373ffffffffffffffffffffffffffffffffffffffff1663f23a6e6187878686866040518663ffffffff1660e01b8152600401611be99594939291906133a3565b6020604051808303816000875af1925050508015611c2557506040513d601f19601f82011682018060405250810190611c22919061318d565b60015b611ccb57611c316131c7565b806308c379a01415611c8e5750611c466131e9565b80611c515750611c90565b806040517f08c379a0000000000000000000000000000000000000000000000000000000008152600401611c859190611fef565b60405180910390fd5b505b6040517f08c379a0000000000000000000000000000000000000000000000000000000008152600401611cc2906132f1565b60405180910390fd5b63f23a6e6160e01b7bffffffffffffffffffffffffffffffffffffffffffffffffffffffff1916817bffffffffffffffffffffffffffffffffffffffffffffffffffffffff191614611d52576040517f08c379a0000000000000000000000000000000000000000000000000000000008152600401611d4990613383565b60405180910390fd5b505b505050505050565b6000604051905090565b600080fd5b600080fd5b600073ffffffffffffffffffffffffffffffffffffffff82169050919050565b6000611d9b82611d70565b9050919050565b611dab81611d90565b8114611db657600080fd5b50565b600081359050611dc881611da2565b92915050565b6000819050919050565b611de181611dce565b8114611dec57600080fd5b50565b600081359050611dfe81611dd8565b92915050565b60008060408385031215611e1b57611e1a611d66565b5b6000611e2985828601611db9565b9250506020611e3a85828601611def565b9150509250929050565b611e4d81611dce565b82525050565b6000602082019050611e686000830184611e44565b92915050565b60007fffffffff0000000000000000000000000000000000000000000000000000000082169050919050565b611ea381611e6e565b8114611eae57600080fd5b50565b600081359050611ec081611e9a565b92915050565b600060208284031215611edc57611edb611d66565b5b6000611eea84828501611eb1565b91505092915050565b60008115159050919050565b611f0881611ef3565b82525050565b6000602082019050611f236000830184611eff565b92915050565b600060208284031215611f3f57611f3e611d66565b5b6000611f4d84828501611def565b91505092915050565b600081519050919050565b600082825260208201905092915050565b60005b83811015611f90578082015181840152602081019050611f75565b83811115611f9f576000848401525b50505050565b6000601f19601f8301169050919050565b6000611fc182611f56565b611fcb8185611f61565b9350611fdb818560208601611f72565b611fe481611fa5565b840191505092915050565b600060208201905081810360008301526120098184611fb6565b905092915050565b60006020828403121561202757612026611d66565b5b600061203584828501611db9565b91505092915050565b600081519050919050565b600082825260208201905092915050565b6000819050602082019050919050565b61207381611dce565b82525050565b6000612085838361206a565b60208301905092915050565b6000602082019050919050565b60006120a98261203e565b6120b38185612049565b93506120be8361205a565b8060005b838110156120ef5781516120d68882612079565b97506120e183612091565b9250506001810190506120c2565b5085935050505092915050565b60006020820190508181036000830152612116818461209e565b905092915050565b600080fd5b7f4e487b7100000000000000000000000000000000000000000000000000000000600052604160045260246000fd5b61215b82611fa5565b810181811067ffffffffffffffff8211171561217a57612179612123565b5b80604052505050565b600061218d611d5c565b90506121998282612152565b919050565b600067ffffffffffffffff8211156121b9576121b8612123565b5b602082029050602081019050919050565b600080fd5b60006121e26121dd8461219e565b612183565b90508083825260208201905060208402830185811115612205576122046121ca565b5b835b8181101561222e578061221a8882611def565b845260208401935050602081019050612207565b5050509392505050565b600082601f83011261224d5761224c61211e565b5b813561225d8482602086016121cf565b91505092915050565b600080fd5b600067ffffffffffffffff82111561228657612285612123565b5b61228f82611fa5565b9050602081019050919050565b82818337600083830152505050565b60006122be6122b98461226b565b612183565b9050828152602081018484840111156122da576122d9612266565b5b6122e584828561229c565b509392505050565b600082601f8301126123025761230161211e565b5b81356123128482602086016122ab565b91505092915050565b600080600080600060a0868803121561233757612336611d66565b5b600061234588828901611db9565b955050602061235688828901611db9565b945050604086013567ffffffffffffffff81111561237757612376611d6b565b5b61238388828901612238565b935050606086013567ffffffffffffffff8111156123a4576123a3611d6b565b5b6123b088828901612238565b925050608086013567ffffffffffffffff8111156123d1576123d0611d6b565b5b6123dd888289016122ed565b9150509295509295909350565b600067ffffffffffffffff82111561240557612404612123565b5b602082029050602081019050919050565b6000612429612424846123ea565b612183565b9050808382526020820190506020840283018581111561244c5761244b6121ca565b5b835b8181101561247557806124618882611db9565b84526020840193505060208101905061244e565b5050509392505050565b600082601f8301126124945761249361211e565b5b81356124a4848260208601612416565b91505092915050565b600080604083850312156124c4576124c3611d66565b5b600083013567ffffffffffffffff8111156124e2576124e1611d6b565b5b6124ee8582860161247f565b925050602083013567ffffffffffffffff81111561250f5761250e611d6b565b5b61251b85828601612238565b9150509250929050565b61252e81611d90565b82525050565b60006020820190506125496000830184612525565b92915050565b61255881611ef3565b811461256357600080fd5b50565b6000813590506125758161254f565b92915050565b6000806040838503121561259257612591611d66565b5b60006125a085828601611db9565b92505060206125b185828601612566565b9150509250929050565b600080604083850312156125d2576125d1611d66565b5b60006125e085828601611db9565b92505060206125f185828601611db9565b9150509250929050565b600080600080600060a0868803121561261757612616611d66565b5b600061262588828901611db9565b955050602061263688828901611db9565b945050604061264788828901611def565b935050606061265888828901611def565b925050608086013567ffffffffffffffff81111561267957612678611d6b565b5b612685888289016122ed565b9150509295509295909350565b7f455243313135353a2061646472657373207a65726f206973206e6f742061207660008201527f616c6964206f776e657200000000000000000000000000000000000000000000602082015250565b60006126ee602a83611f61565b91506126f982612692565b604082019050919050565b6000602082019050818103600083015261271d816126e1565b9050919050565b7f4e487b7100000000000000000000000000000000000000000000000000000000600052602260045260246000fd5b6000600282049050600182168061276b57607f821691505b6020821081141561277f5761277e612724565b5b50919050565b7f6172656120616c72656164792073657420666f722074686973206f7267616e6960008201527f7a6174696f6e0000000000000000000000000000000000000000000000000000602082015250565b60006127e1602683611f61565b91506127ec82612785565b604082019050919050565b60006020820190508181036000830152612810816127d4565b9050919050565b7f6f7267616e697a6174696f6e206e6f7420616464656400000000000000000000600082015250565b600061284d601683611f61565b915061285882612817565b602082019050919050565b6000602082019050818103600083015261287c81612840565b9050919050565b7f4e487b7100000000000000000000000000000000000000000000000000000000600052603260045260246000fd5b7f4e487b7100000000000000000000000000000000000000000000000000000000600052601160045260246000fd5b60006128ec82611dce565b91507fffffffffffffffffffffffffffffffffffffffffffffffffffffffffffffffff82141561291f5761291e6128b2565b5b600182019050919050565b7f74686973206f7267616e697a6174696f6e20646f6573206e6f7420686176652060008201527f7065726d697373696f6e20746f20726563656976652070617274206f6620746860208201527f6520626174636800000000000000000000000000000000000000000000000000604082015250565b60006129ac604783611f61565b91506129b78261292a565b606082019050919050565b600060208201905081810360008301526129db8161299f565b9050919050565b7f455243313135353a206163636f756e747320616e6420696473206c656e67746860008201527f206d69736d617463680000000000000000000000000000000000000000000000602082015250565b6000612a3e602983611f61565b9150612a49826129e2565b604082019050919050565b60006020820190508181036000830152612a6d81612a31565b9050919050565b7f74726f73736f7175616c71756572206e616f206568207a65726f000000000000600082015250565b6000612aaa601a83611f61565b9150612ab582612a74565b602082019050919050565b60006020820190508181036000830152612ad981612a9d565b9050919050565b6000604082019050612af56000830185611e44565b612b026020830184612525565b9392505050565b7f6164647265737320616c72656164792061646465640000000000000000000000600082015250565b6000612b3f601583611f61565b9150612b4a82612b09565b602082019050919050565b60006020820190508181036000830152612b6e81612b32565b9050919050565b7f74686973206f7267616e697a6174696f6e20646f6573206e6f7420686176652060008201527f7065726d697373696f6e20746f2072656365697665207468697320627564676560208201527f7400000000000000000000000000000000000000000000000000000000000000604082015250565b6000612bf7604183611f61565b9150612c0282612b75565b606082019050919050565b60006020820190508181036000830152612c2681612bea565b9050919050565b7f4f776e61626c653a206e6577206f776e657220697320746865207a65726f206160008201527f6464726573730000000000000000000000000000000000000000000000000000602082015250565b6000612c89602683611f61565b9150612c9482612c2d565b604082019050919050565b60006020820190508181036000830152612cb881612c7c565b9050919050565b7f4f776e61626c653a2063616c6c6572206973206e6f7420746865206f776e6572600082015250565b6000612cf5602083611f61565b9150612d0082612cbf565b602082019050919050565b60006020820190508181036000830152612d2481612ce8565b9050919050565b7f455243313135353a2063616c6c6572206973206e6f7420746f6b656e206f776e60008201527f6572206f7220617070726f766564000000000000000000000000000000000000602082015250565b6000612d87602e83611f61565b9150612d9282612d2b565b604082019050919050565b60006020820190508181036000830152612db681612d7a565b9050919050565b7f455243313135353a2073657474696e6720617070726f76616c2073746174757360008201527f20666f722073656c660000000000000000000000000000000000000000000000602082015250565b6000612e19602983611f61565b9150612e2482612dbd565b604082019050919050565b60006020820190508181036000830152612e4881612e0c565b9050919050565b7f455243313135353a2069647320616e6420616d6f756e7473206c656e6774682060008201527f6d69736d61746368000000000000000000000000000000000000000000000000602082015250565b6000612eab602883611f61565b9150612eb682612e4f565b604082019050919050565b60006020820190508181036000830152612eda81612e9e565b9050919050565b7f455243313135353a207472616e7366657220746f20746865207a65726f20616460008201527f6472657373000000000000000000000000000000000000000000000000000000602082015250565b6000612f3d602583611f61565b9150612f4882612ee1565b604082019050919050565b60006020820190508181036000830152612f6c81612f30565b9050919050565b7f455243313135353a20696e73756666696369656e742062616c616e636520666f60008201527f72207472616e7366657200000000000000000000000000000000000000000000602082015250565b6000612fcf602a83611f61565b9150612fda82612f73565b604082019050919050565b60006020820190508181036000830152612ffe81612fc2565b9050919050565b600061301082611dce565b915061301b83611dce565b9250827fffffffffffffffffffffffffffffffffffffffffffffffffffffffffffffffff038211156130505761304f6128b2565b5b828201905092915050565b60006040820190508181036000830152613075818561209e565b90508181036020830152613089818461209e565b90509392505050565b60006040820190506130a76000830185611e44565b6130b46020830184611e44565b9392505050565b600081519050919050565b600082825260208201905092915050565b60006130e2826130bb565b6130ec81856130c6565b93506130fc818560208601611f72565b61310581611fa5565b840191505092915050565b600060a0820190506131256000830188612525565b6131326020830187612525565b8181036040830152613144818661209e565b90508181036060830152613158818561209e565b9050818103608083015261316c81846130d7565b90509695505050505050565b60008151905061318781611e9a565b92915050565b6000602082840312156131a3576131a2611d66565b5b60006131b184828501613178565b91505092915050565b60008160e01c9050919050565b600060033d11156131e65760046000803e6131e36000516131ba565b90505b90565b600060443d10156131f95761327c565b613201611d5c565b60043d036004823e80513d602482011167ffffffffffffffff8211171561322957505061327c565b808201805167ffffffffffffffff811115613247575050505061327c565b80602083010160043d03850181111561326457505050505061327c565b61327382602001850186612152565b82955050505050505b90565b7f455243313135353a207472616e7366657220746f206e6f6e2d4552433131353560008201527f526563656976657220696d706c656d656e746572000000000000000000000000602082015250565b60006132db603483611f61565b91506132e68261327f565b604082019050919050565b6000602082019050818103600083015261330a816132ce565b9050919050565b7f455243313135353a204552433131353552656365697665722072656a6563746560008201527f6420746f6b656e73000000000000000000000000000000000000000000000000602082015250565b600061336d602883611f61565b915061337882613311565b604082019050919050565b6000602082019050818103600083015261339c81613360565b9050919050565b600060a0820190506133b86000830188612525565b6133c56020830187612525565b6133d26040830186611e44565b6133df6060830185611e44565b81810360808301526133f181846130d7565b9050969550505050505056fea26469706673582212204094de44d729d05ee69da66a9caba8f2f09eabba6a7506af5c6c3338913622db64736f6c634300080a003368747470733a2f2f636f6e736f6c652e66696c65626173652e636f6d2f6275636b6574732f6170702d6f7263616d656e746f2f7b617265617d2e6a736f6e",
  "devdoc": {
    "kind": "dev",
    "methods": {
      "balanceOf(address,uint256)": {
        "details": "See {IERC1155-balanceOf}. Requirements: - `account` cannot be the zero address."
      },
      "balanceOfBatch(address[],uint256[])": {
        "details": "See {IERC1155-balanceOfBatch}. Requirements: - `accounts` and `ids` must have the same length."
      },
      "isApprovedForAll(address,address)": {
        "details": "See {IERC1155-isApprovedForAll}."
      },
      "owner()": {
        "details": "Returns the address of the current owner."
      },
      "renounceOwnership()": {
        "details": "Leaves the contract without owner. It will not be possible to call `onlyOwner` functions anymore. Can only be called by the current owner. NOTE: Renouncing ownership will leave the contract without an owner, thereby removing any functionality that is only available to the owner."
      },
      "setApprovalForAll(address,bool)": {
        "details": "See {IERC1155-setApprovalForAll}."
      },
      "supportsInterface(bytes4)": {
        "details": "See {IERC165-supportsInterface}."
      },
      "transferOwnership(address)": {
        "details": "Transfers ownership of the contract to a new account (`newOwner`). Can only be called by the current owner."
      },
      "uri(uint256)": {
        "details": "See {IERC1155MetadataURI-uri}. This implementation returns the same URI for *all* token types. It relies on the token type ID substitution mechanism https://eips.ethereum.org/EIPS/eip-1155#metadata[defined in the EIP]. Clients calling this function must replace the `\\{id\\}` substring with the actual token type ID."
      }
    },
    "stateVariables": {
      "_orgArea": {
        "details": "mapping address to policy area to bool"
      }
    },
    "version": 1
  },
  "userdoc": {
    "kind": "user",
    "methods": {},
    "version": 1
  },
  "storageLayout": {
    "storage": [
      {
        "astId": 138,
        "contract": "contracts/orcamento.sol:OrcamentoUniao2023",
        "label": "_balances",
        "offset": 0,
        "slot": "0",
        "type": "t_mapping(t_uint256,t_mapping(t_address,t_uint256))"
      },
      {
        "astId": 144,
        "contract": "contracts/orcamento.sol:OrcamentoUniao2023",
        "label": "_operatorApprovals",
        "offset": 0,
        "slot": "1",
        "type": "t_mapping(t_address,t_mapping(t_address,t_bool))"
      },
      {
        "astId": 146,
        "contract": "contracts/orcamento.sol:OrcamentoUniao2023",
        "label": "_uri",
        "offset": 0,
        "slot": "2",
        "type": "t_string_storage"
      },
      {
        "astId": 7,
        "contract": "contracts/orcamento.sol:OrcamentoUniao2023",
        "label": "_owner",
        "offset": 0,
        "slot": "3",
        "type": "t_address"
      },
      {
        "astId": 1916,
        "contract": "contracts/orcamento.sol:OrcamentoUniao2023",
        "label": "_orgArea",
        "offset": 0,
        "slot": "4",
        "type": "t_mapping(t_address,t_mapping(t_uint256,t_bool))"
      },
      {
        "astId": 1919,
        "contract": "contracts/orcamento.sol:OrcamentoUniao2023",
        "label": "OUTROS",
        "offset": 0,
        "slot": "5",
        "type": "t_uint256"
      },
      {
        "astId": 1922,
        "contract": "contracts/orcamento.sol:OrcamentoUniao2023",
        "label": "EDUCACAO",
        "offset": 0,
        "slot": "6",
        "type": "t_uint256"
      },
      {
        "astId": 1925,
        "contract": "contracts/orcamento.sol:OrcamentoUniao2023",
        "label": "INFRA",
        "offset": 0,
        "slot": "7",
        "type": "t_uint256"
      },
      {
        "astId": 1928,
        "contract": "contracts/orcamento.sol:OrcamentoUniao2023",
        "label": "SAUDE",
        "offset": 0,
        "slot": "8",
        "type": "t_uint256"
      },
      {
        "astId": 1936,
        "contract": "contracts/orcamento.sol:OrcamentoUniao2023",
        "label": "AREAS",
        "offset": 0,
        "slot": "9",
        "type": "t_array(t_uint256)dyn_storage"
      },
      {
        "astId": 1941,
        "contract": "contracts/orcamento.sol:OrcamentoUniao2023",
        "label": "_budget",
        "offset": 0,
        "slot": "10",
        "type": "t_uint256"
      },
      {
        "astId": 1944,
        "contract": "contracts/orcamento.sol:OrcamentoUniao2023",
        "label": "_ed",
        "offset": 0,
        "slot": "11",
        "type": "t_uint256"
      },
      {
        "astId": 1947,
        "contract": "contracts/orcamento.sol:OrcamentoUniao2023",
        "label": "_infra",
        "offset": 0,
        "slot": "12",
        "type": "t_uint256"
      },
      {
        "astId": 1950,
        "contract": "contracts/orcamento.sol:OrcamentoUniao2023",
        "label": "_health",
        "offset": 0,
        "slot": "13",
        "type": "t_uint256"
      },
      {
        "astId": 2263,
        "contract": "contracts/orcamento.sol:OrcamentoUniao2023",
        "label": "umValor",
        "offset": 0,
        "slot": "14",
        "type": "t_uint256"
      }
    ],
    "types": {
      "t_address": {
        "encoding": "inplace",
        "label": "address",
        "numberOfBytes": "20"
      },
      "t_array(t_uint256)dyn_storage": {
        "base": "t_uint256",
        "encoding": "dynamic_array",
        "label": "uint256[]",
        "numberOfBytes": "32"
      },
      "t_bool": {
        "encoding": "inplace",
        "label": "bool",
        "numberOfBytes": "1"
      },
      "t_mapping(t_address,t_bool)": {
        "encoding": "mapping",
        "key": "t_address",
        "label": "mapping(address => bool)",
        "numberOfBytes": "32",
        "value": "t_bool"
      },
      "t_mapping(t_address,t_mapping(t_address,t_bool))": {
        "encoding": "mapping",
        "key": "t_address",
        "label": "mapping(address => mapping(address => bool))",
        "numberOfBytes": "32",
        "value": "t_mapping(t_address,t_bool)"
      },
      "t_mapping(t_address,t_mapping(t_uint256,t_bool))": {
        "encoding": "mapping",
        "key": "t_address",
        "label": "mapping(address => mapping(uint256 => bool))",
        "numberOfBytes": "32",
        "value": "t_mapping(t_uint256,t_bool)"
      },
      "t_mapping(t_address,t_uint256)": {
        "encoding": "mapping",
        "key": "t_address",
        "label": "mapping(address => uint256)",
        "numberOfBytes": "32",
        "value": "t_uint256"
      },
      "t_mapping(t_uint256,t_bool)": {
        "encoding": "mapping",
        "key": "t_uint256",
        "label": "mapping(uint256 => bool)",
        "numberOfBytes": "32",
        "value": "t_bool"
      },
      "t_mapping(t_uint256,t_mapping(t_address,t_uint256))": {
        "encoding": "mapping",
        "key": "t_uint256",
        "label": "mapping(uint256 => mapping(address => uint256))",
        "numberOfBytes": "32",
        "value": "t_mapping(t_address,t_uint256)"
      },
      "t_string_storage": {
        "encoding": "bytes",
        "label": "string",
        "numberOfBytes": "32"
      },
      "t_uint256": {
        "encoding": "inplace",
        "label": "uint256",
        "numberOfBytes": "32"
      }
    }
  }
}